{
  "_format": "hh-sol-artifact-1",
  "contractName": "MetaStorage",
  "sourceName": "contracts/MetaStorage.sol",
  "abi": [
    {
      "anonymous": false,
      "inputs": [
        {
          "indexed": false,
          "internalType": "address",
          "name": "featuredEventContract",
          "type": "address"
        }
      ],
      "name": "CreateNewFeature",
      "type": "event"
    },
    {
      "anonymous": false,
      "inputs": [
        {
          "indexed": false,
          "internalType": "address",
          "name": "_hostAddress",
          "type": "address"
        },
        {
          "indexed": false,
          "internalType": "string",
          "name": "name",
          "type": "string"
        },
        {
          "indexed": false,
          "internalType": "string",
          "name": "image",
          "type": "string"
        },
        {
          "indexed": false,
          "internalType": "string",
          "name": "bio",
          "type": "string"
        },
        {
          "indexed": false,
          "internalType": "string",
          "name": "socialLinks",
          "type": "string"
        }
      ],
      "name": "HostCreated",
      "type": "event"
    },
    {
      "anonymous": false,
      "inputs": [
        {
          "indexed": true,
          "internalType": "address",
          "name": "previousOwner",
          "type": "address"
        },
        {
          "indexed": true,
          "internalType": "address",
          "name": "newOwner",
          "type": "address"
        }
      ],
      "name": "OwnershipTransferred",
      "type": "event"
    },
    {
      "anonymous": false,
      "inputs": [
        {
          "indexed": false,
          "internalType": "address",
          "name": "childContract",
          "type": "address"
        },
        {
          "indexed": false,
          "internalType": "address",
          "name": "buyer",
          "type": "address"
        },
        {
          "indexed": false,
          "internalType": "uint256",
          "name": "tokenId",
          "type": "uint256"
        }
      ],
      "name": "TicketBought",
      "type": "event"
    },
    {
      "anonymous": false,
      "inputs": [
        {
          "indexed": false,
          "internalType": "string",
          "name": "title",
          "type": "string"
        },
        {
          "indexed": false,
          "internalType": "uint256",
          "name": "fee",
          "type": "uint256"
        },
        {
          "indexed": false,
          "internalType": "uint256",
          "name": "seats",
          "type": "uint256"
        },
        {
          "indexed": false,
          "internalType": "string",
          "name": "image",
          "type": "string"
        },
        {
          "indexed": false,
          "internalType": "address",
          "name": "eventHost",
          "type": "address"
        },
        {
          "indexed": false,
          "internalType": "string",
          "name": "description",
          "type": "string"
        },
        {
          "indexed": false,
          "internalType": "string",
          "name": "link",
          "type": "string"
        },
        {
          "indexed": false,
          "internalType": "string",
          "name": "date",
          "type": "string"
        },
        {
          "indexed": false,
          "internalType": "address",
          "name": "childAddress",
          "type": "address"
        },
        {
          "indexed": false,
          "internalType": "string",
          "name": "category",
          "type": "string"
        },
        {
          "indexed": false,
          "internalType": "address[]",
          "name": "buyers",
          "type": "address[]"
        },
        {
          "indexed": false,
          "internalType": "string",
          "name": "venue",
          "type": "string"
        }
      ],
      "name": "childCreated",
      "type": "event"
    },
    {
      "inputs": [
        {
          "internalType": "string",
          "name": "_name",
          "type": "string"
        },
        {
          "internalType": "string",
          "name": "_image",
          "type": "string"
        },
        {
          "internalType": "string",
          "name": "_bio",
          "type": "string"
        },
        {
          "internalType": "string",
          "name": "_socialLinks",
          "type": "string"
        }
      ],
      "name": "addCreateHostProfile",
      "outputs": [],
      "stateMutability": "nonpayable",
      "type": "function"
    },
    {
      "inputs": [
        {
          "internalType": "address",
          "name": "_event",
          "type": "address"
        }
      ],
      "name": "createFeaturedEvent",
      "outputs": [],
      "stateMutability": "nonpayable",
      "type": "function"
    },
    {
      "inputs": [
        {
          "internalType": "address",
          "name": "_childContract",
          "type": "address"
        },
        {
          "internalType": "address",
          "name": "_sender",
          "type": "address"
        },
        {
          "internalType": "uint256",
          "name": "_id",
          "type": "uint256"
        }
      ],
      "name": "emitTicketBuy",
      "outputs": [],
      "stateMutability": "nonpayable",
      "type": "function"
    },
    {
      "inputs": [
        {
          "internalType": "uint256",
          "name": "",
          "type": "uint256"
        }
      ],
      "name": "featuredArray",
      "outputs": [
        {
          "internalType": "address",
          "name": "",
          "type": "address"
        }
      ],
      "stateMutability": "view",
      "type": "function"
    },
    {
      "inputs": [],
      "name": "getEventDetails",
      "outputs": [
        {
          "components": [
            {
              "internalType": "string",
              "name": "title",
              "type": "string"
            },
            {
              "internalType": "string",
              "name": "image",
              "type": "string"
            },
            {
              "internalType": "string",
              "name": "link",
              "type": "string"
            },
            {
              "internalType": "uint256",
              "name": "fee",
              "type": "uint256"
            },
            {
              "internalType": "uint256",
              "name": "seats",
              "type": "uint256"
            },
            {
              "internalType": "uint256",
              "name": "occupiedSeats",
              "type": "uint256"
            },
            {
              "internalType": "string",
              "name": "date",
              "type": "string"
            },
            {
              "internalType": "address",
              "name": "childContract",
              "type": "address"
            },
            {
              "internalType": "string",
              "name": "description",
              "type": "string"
            },
            {
              "internalType": "address",
              "name": "eventHost",
              "type": "address"
            },
            {
              "internalType": "string",
              "name": "venue",
              "type": "string"
            }
          ],
          "internalType": "struct MetaStorage.EventData[]",
          "name": "_EventData",
          "type": "tuple[]"
        }
      ],
      "stateMutability": "view",
      "type": "function"
    },
    {
      "inputs": [],
      "name": "getRewards",
      "outputs": [],
      "stateMutability": "payable",
      "type": "function"
    },
    {
      "inputs": [],
      "name": "owner",
      "outputs": [
        {
          "internalType": "address",
          "name": "",
          "type": "address"
        }
      ],
      "stateMutability": "view",
      "type": "function"
    },
    {
      "inputs": [
        {
          "internalType": "string",
          "name": "title",
          "type": "string"
        },
        {
          "internalType": "uint256",
          "name": "fee",
          "type": "uint256"
        },
        {
          "internalType": "uint256",
          "name": "seats",
          "type": "uint256"
        },
        {
          "internalType": "string",
          "name": "image",
          "type": "string"
        },
        {
          "internalType": "address",
          "name": "eventHostAddress",
          "type": "address"
        },
        {
          "internalType": "string",
          "name": "description",
          "type": "string"
        },
        {
          "internalType": "string",
          "name": "link",
          "type": "string"
        },
        {
          "internalType": "string",
          "name": "date",
          "type": "string"
        },
        {
          "internalType": "address",
          "name": "child",
          "type": "address"
        },
        {
          "internalType": "string",
          "name": "category",
          "type": "string"
        },
        {
          "internalType": "string",
          "name": "venue",
          "type": "string"
        }
      ],
      "name": "pushEventDetails",
      "outputs": [],
      "stateMutability": "nonpayable",
      "type": "function"
    },
    {
      "inputs": [],
      "name": "renounceOwnership",
      "outputs": [],
      "stateMutability": "nonpayable",
      "type": "function"
    },
    {
      "inputs": [
        {
          "internalType": "address",
          "name": "newOwner",
          "type": "address"
        }
      ],
      "name": "transferOwnership",
      "outputs": [],
      "stateMutability": "nonpayable",
      "type": "function"
    }
  ],
  "bytecode": "0x608060405260405180604001604052807328172273cc1e0395f3473ec6ed062b6fdfb1594073ffffffffffffffffffffffffffffffffffffffff1673ffffffffffffffffffffffffffffffffffffffff1681526020017209f767298385f4aa17ea1493562834657a2a5a73ffffffffffffffffffffffffffffffffffffffff1673ffffffffffffffffffffffffffffffffffffffff168152506004906002620000aa929190620001ab565b50348015620000b857600080fd5b50620000d9620000cd620000df60201b60201c565b620000e760201b60201c565b62000259565b600033905090565b60008060009054906101000a900473ffffffffffffffffffffffffffffffffffffffff169050816000806101000a81548173ffffffffffffffffffffffffffffffffffffffff021916908373ffffffffffffffffffffffffffffffffffffffff1602179055508173ffffffffffffffffffffffffffffffffffffffff168173ffffffffffffffffffffffffffffffffffffffff167f8be0079c531659141344cd1fd0a4f28419497f9722a3daafe3b4186f6b6457e060405160405180910390a35050565b82805482825590600052602060002090810192821562000227579160200282015b82811115620002265782518260006101000a81548173ffffffffffffffffffffffffffffffffffffffff021916908373ffffffffffffffffffffffffffffffffffffffff16021790555091602001919060010190620001cc565b5b5090506200023691906200023a565b5090565b5b80821115620002555760008160009055506001016200023b565b5090565b611cb080620002696000396000f3fe6080604052600436106100915760003560e01c80638da5cb5b116100595780638da5cb5b146101325780639de2970e1461015d578063b37ddf1c14610186578063e2bb3ccf146101c3578063f2fde38b146101ee57610091565b80630572b0cc146100965780630d93805f146100a05780634e5a8c47146100c9578063701ebddd146100f2578063715018a61461011b575b600080fd5b61009e610217565b005b3480156100ac57600080fd5b506100c760048036038101906100c291906112b4565b6102e3565b005b3480156100d557600080fd5b506100f060048036038101906100eb91906111f1565b610586565b005b3480156100fe57600080fd5b50610119600480360381019061011491906111a2565b6106a8565b005b34801561012757600080fd5b506101306106e8565b005b34801561013e57600080fd5b50610147610770565b604051610154919061177a565b60405180910390f35b34801561016957600080fd5b50610184600480360381019061017f9190611179565b610799565b005b34801561019257600080fd5b506101ad60048036038101906101a8919061144c565b61096e565b6040516101ba919061177a565b60405180910390f35b3480156101cf57600080fd5b506101d86109ad565b6040516101e5919061183b565b60405180910390f35b3480156101fa57600080fd5b5061021560048036038101906102109190611179565b610e80565b005b61021f610f78565b73ffffffffffffffffffffffffffffffffffffffff1661023d610770565b73ffffffffffffffffffffffffffffffffffffffff1614610293576040517f08c379a000000000000000000000000000000000000000000000000000000000815260040161028a9061196f565b60405180910390fd5b61029b610770565b73ffffffffffffffffffffffffffffffffffffffff166108fc479081150290604051600060405180830381858888f193505050501580156102e0573d6000803e3d6000fd5b50565b60006040518061016001604052808d81526020018a81526020018781526020018c81526020018b8152602001600081526020018681526020018573ffffffffffffffffffffffffffffffffffffffff1681526020018881526020018973ffffffffffffffffffffffffffffffffffffffff168152602001838152509050600160008973ffffffffffffffffffffffffffffffffffffffff1673ffffffffffffffffffffffffffffffffffffffff1681526020019081526020016000208190806001815401808255809150506001900390600052602060002090600b020160009091909190915060008201518160000190805190602001906103e5929190611044565b506020820151816001019080519060200190610402929190611044565b50604082015181600201908051906020019061041f929190611044565b50606082015181600301556080820151816004015560a0820151816005015560c082015181600601908051906020019061045a929190611044565b5060e08201518160070160006101000a81548173ffffffffffffffffffffffffffffffffffffffff021916908373ffffffffffffffffffffffffffffffffffffffff1602179055506101008201518160080190805190602001906104bf929190611044565b506101208201518160090160006101000a81548173ffffffffffffffffffffffffffffffffffffffff021916908373ffffffffffffffffffffffffffffffffffffffff16021790555061014082015181600a019080519060200190610525929190611044565b50505060607f60a09880f787ebea52628c59ec5fdede98837d410705a1c8a64fec77c1b0ab2a8d8d8d8d8d8d8d8d8d8d8b8e60405161056f9c9b9a9998979695949392919061185d565b60405180910390a150505050505050505050505050565b6000604051806080016040528086815260200185815260200184815260200183815250905080600260003373ffffffffffffffffffffffffffffffffffffffff1673ffffffffffffffffffffffffffffffffffffffff1681526020019081526020016000206000820151816000019080519060200190610607929190611044565b506020820151816001019080519060200190610624929190611044565b506040820151816002019080519060200190610641929190611044565b50606082015181600301908051906020019061065e929190611044565b509050507f882d2a8ebb4b4f89ef4c84d30b230f75ddb89c30ce449dd549d6a1db8ebc7c0833868686866040516106999594939291906117cc565b60405180910390a15050505050565b7f8bca18b5bac1d8ac9aa654d69e8a48c6508e0cf5b6a53ce86584a69326f61ac48383836040516106db93929190611795565b60405180910390a1505050565b6106f0610f78565b73ffffffffffffffffffffffffffffffffffffffff1661070e610770565b73ffffffffffffffffffffffffffffffffffffffff1614610764576040517f08c379a000000000000000000000000000000000000000000000000000000000815260040161075b9061196f565b60405180910390fd5b61076e6000610f80565b565b60008060009054906101000a900473ffffffffffffffffffffffffffffffffffffffff16905090565b60046000815481106107d4577f4e487b7100000000000000000000000000000000000000000000000000000000600052603260045260246000fd5b9060005260206000200160009054906101000a900473ffffffffffffffffffffffffffffffffffffffff1673ffffffffffffffffffffffffffffffffffffffff163373ffffffffffffffffffffffffffffffffffffffff1614806108c85750600460018154811061086e577f4e487b7100000000000000000000000000000000000000000000000000000000600052603260045260246000fd5b9060005260206000200160009054906101000a900473ffffffffffffffffffffffffffffffffffffffff1673ffffffffffffffffffffffffffffffffffffffff163373ffffffffffffffffffffffffffffffffffffffff16145b6108d157600080fd5b6003819080600181540180825580915050600190039060005260206000200160009091909190916101000a81548173ffffffffffffffffffffffffffffffffffffffff021916908373ffffffffffffffffffffffffffffffffffffffff1602179055507f74ad5e47c8f24a11f121395d6f80c4316c5e4ef72517853dc884be5d7a74e1d481604051610963919061177a565b60405180910390a150565b6003818154811061097e57600080fd5b906000526020600020016000915054906101000a900473ffffffffffffffffffffffffffffffffffffffff1681565b6060600160003373ffffffffffffffffffffffffffffffffffffffff1673ffffffffffffffffffffffffffffffffffffffff168152602001908152602001600020805480602002602001604051908101604052809291908181526020016000905b82821015610e7757838290600052602060002090600b020160405180610160016040529081600082018054610a4290611b02565b80601f0160208091040260200160405190810160405280929190818152602001828054610a6e90611b02565b8015610abb5780601f10610a9057610100808354040283529160200191610abb565b820191906000526020600020905b815481529060010190602001808311610a9e57829003601f168201915b50505050508152602001600182018054610ad490611b02565b80601f0160208091040260200160405190810160405280929190818152602001828054610b0090611b02565b8015610b4d5780601f10610b2257610100808354040283529160200191610b4d565b820191906000526020600020905b815481529060010190602001808311610b3057829003601f168201915b50505050508152602001600282018054610b6690611b02565b80601f0160208091040260200160405190810160405280929190818152602001828054610b9290611b02565b8015610bdf5780601f10610bb457610100808354040283529160200191610bdf565b820191906000526020600020905b815481529060010190602001808311610bc257829003601f168201915b50505050508152602001600382015481526020016004820154815260200160058201548152602001600682018054610c1690611b02565b80601f0160208091040260200160405190810160405280929190818152602001828054610c4290611b02565b8015610c8f5780601f10610c6457610100808354040283529160200191610c8f565b820191906000526020600020905b815481529060010190602001808311610c7257829003601f168201915b505050505081526020016007820160009054906101000a900473ffffffffffffffffffffffffffffffffffffffff1673ffffffffffffffffffffffffffffffffffffffff1673ffffffffffffffffffffffffffffffffffffffff168152602001600882018054610cfe90611b02565b80601f0160208091040260200160405190810160405280929190818152602001828054610d2a90611b02565b8015610d775780601f10610d4c57610100808354040283529160200191610d77565b820191906000526020600020905b815481529060010190602001808311610d5a57829003601f168201915b505050505081526020016009820160009054906101000a900473ffffffffffffffffffffffffffffffffffffffff1673ffffffffffffffffffffffffffffffffffffffff1673ffffffffffffffffffffffffffffffffffffffff168152602001600a82018054610de690611b02565b80601f0160208091040260200160405190810160405280929190818152602001828054610e1290611b02565b8015610e5f5780601f10610e3457610100808354040283529160200191610e5f565b820191906000526020600020905b815481529060010190602001808311610e4257829003601f168201915b50505050508152505081526020019060010190610a0e565b50505050905090565b610e88610f78565b73ffffffffffffffffffffffffffffffffffffffff16610ea6610770565b73ffffffffffffffffffffffffffffffffffffffff1614610efc576040517f08c379a0000000000000000000000000000000000000000000000000000000008152600401610ef39061196f565b60405180910390fd5b600073ffffffffffffffffffffffffffffffffffffffff168173ffffffffffffffffffffffffffffffffffffffff161415610f6c576040517f08c379a0000000000000000000000000000000000000000000000000000000008152600401610f639061194f565b60405180910390fd5b610f7581610f80565b50565b600033905090565b60008060009054906101000a900473ffffffffffffffffffffffffffffffffffffffff169050816000806101000a81548173ffffffffffffffffffffffffffffffffffffffff021916908373ffffffffffffffffffffffffffffffffffffffff1602179055508173ffffffffffffffffffffffffffffffffffffffff168173ffffffffffffffffffffffffffffffffffffffff167f8be0079c531659141344cd1fd0a4f28419497f9722a3daafe3b4186f6b6457e060405160405180910390a35050565b82805461105090611b02565b90600052602060002090601f01602090048101928261107257600085556110b9565b82601f1061108b57805160ff19168380011785556110b9565b828001600101855582156110b9579182015b828111156110b857825182559160200191906001019061109d565b5b5090506110c691906110ca565b5090565b5b808211156110e35760008160009055506001016110cb565b5090565b60006110fa6110f5846119b4565b61198f565b90508281526020810184848401111561111257600080fd5b61111d848285611ac0565b509392505050565b60008135905061113481611c4c565b92915050565b600082601f83011261114b57600080fd5b813561115b8482602086016110e7565b91505092915050565b60008135905061117381611c63565b92915050565b60006020828403121561118b57600080fd5b600061119984828501611125565b91505092915050565b6000806000606084860312156111b757600080fd5b60006111c586828701611125565b93505060206111d686828701611125565b92505060406111e786828701611164565b9150509250925092565b6000806000806080858703121561120757600080fd5b600085013567ffffffffffffffff81111561122157600080fd5b61122d8782880161113a565b945050602085013567ffffffffffffffff81111561124a57600080fd5b6112568782880161113a565b935050604085013567ffffffffffffffff81111561127357600080fd5b61127f8782880161113a565b925050606085013567ffffffffffffffff81111561129c57600080fd5b6112a88782880161113a565b91505092959194509250565b60008060008060008060008060008060006101608c8e0312156112d657600080fd5b60008c013567ffffffffffffffff8111156112f057600080fd5b6112fc8e828f0161113a565b9b5050602061130d8e828f01611164565b9a5050604061131e8e828f01611164565b99505060608c013567ffffffffffffffff81111561133b57600080fd5b6113478e828f0161113a565b98505060806113588e828f01611125565b97505060a08c013567ffffffffffffffff81111561137557600080fd5b6113818e828f0161113a565b96505060c08c013567ffffffffffffffff81111561139e57600080fd5b6113aa8e828f0161113a565b95505060e08c013567ffffffffffffffff8111156113c757600080fd5b6113d38e828f0161113a565b9450506101006113e58e828f01611125565b9350506101208c013567ffffffffffffffff81111561140357600080fd5b61140f8e828f0161113a565b9250506101408c013567ffffffffffffffff81111561142d57600080fd5b6114398e828f0161113a565b9150509295989b509295989b9093969950565b60006020828403121561145e57600080fd5b600061146c84828501611164565b91505092915050565b600061148183836114a1565b60208301905092915050565b6000611499838361164a565b905092915050565b6114aa81611a84565b82525050565b6114b981611a84565b82525050565b60006114ca82611a05565b6114d48185611a40565b93506114df836119e5565b8060005b838110156115105781516114f78882611475565b975061150283611a26565b9250506001810190506114e3565b5085935050505092915050565b600061152882611a10565b6115328185611a51565b935083602082028501611544856119f5565b8060005b858110156115805784840389528151611561858261148d565b945061156c83611a33565b925060208a01995050600181019050611548565b50829750879550505050505092915050565b600061159d82611a1b565b6115a78185611a62565b93506115b7818560208601611acf565b6115c081611bc3565b840191505092915050565b60006115d682611a1b565b6115e08185611a73565b93506115f0818560208601611acf565b6115f981611bc3565b840191505092915050565b6000611611602683611a73565b915061161c82611bd4565b604082019050919050565b6000611634602083611a73565b915061163f82611c23565b602082019050919050565b60006101608301600083015184820360008601526116688282611592565b915050602083015184820360208601526116828282611592565b9150506040830151848203604086015261169c8282611592565b91505060608301516116b1606086018261175c565b5060808301516116c4608086018261175c565b5060a08301516116d760a086018261175c565b5060c083015184820360c08601526116ef8282611592565b91505060e083015161170460e08601826114a1565b5061010083015184820361010086015261171e8282611592565b9150506101208301516117356101208601826114a1565b5061014083015184820361014086015261174f8282611592565b9150508091505092915050565b61176581611ab6565b82525050565b61177481611ab6565b82525050565b600060208201905061178f60008301846114b0565b92915050565b60006060820190506117aa60008301866114b0565b6117b760208301856114b0565b6117c4604083018461176b565b949350505050565b600060a0820190506117e160008301886114b0565b81810360208301526117f381876115cb565b9050818103604083015261180781866115cb565b9050818103606083015261181b81856115cb565b9050818103608083015261182f81846115cb565b90509695505050505050565b60006020820190508181036000830152611855818461151d565b905092915050565b6000610180820190508181036000830152611878818f6115cb565b9050611887602083018e61176b565b611894604083018d61176b565b81810360608301526118a6818c6115cb565b90506118b5608083018b6114b0565b81810360a08301526118c7818a6115cb565b905081810360c08301526118db81896115cb565b905081810360e08301526118ef81886115cb565b90506118ff6101008301876114b0565b81810361012083015261191281866115cb565b905081810361014083015261192781856114bf565b905081810361016083015261193c81846115cb565b90509d9c50505050505050505050505050565b6000602082019050818103600083015261196881611604565b9050919050565b6000602082019050818103600083015261198881611627565b9050919050565b60006119996119aa565b90506119a58282611b34565b919050565b6000604051905090565b600067ffffffffffffffff8211156119cf576119ce611b94565b5b6119d882611bc3565b9050602081019050919050565b6000819050602082019050919050565b6000819050602082019050919050565b600081519050919050565b600081519050919050565b600081519050919050565b6000602082019050919050565b6000602082019050919050565b600082825260208201905092915050565b600082825260208201905092915050565b600082825260208201905092915050565b600082825260208201905092915050565b6000611a8f82611a96565b9050919050565b600073ffffffffffffffffffffffffffffffffffffffff82169050919050565b6000819050919050565b82818337600083830152505050565b60005b83811015611aed578082015181840152602081019050611ad2565b83811115611afc576000848401525b50505050565b60006002820490506001821680611b1a57607f821691505b60208210811415611b2e57611b2d611b65565b5b50919050565b611b3d82611bc3565b810181811067ffffffffffffffff82111715611b5c57611b5b611b94565b5b80604052505050565b7f4e487b7100000000000000000000000000000000000000000000000000000000600052602260045260246000fd5b7f4e487b7100000000000000000000000000000000000000000000000000000000600052604160045260246000fd5b6000601f19601f8301169050919050565b7f4f776e61626c653a206e6577206f776e657220697320746865207a65726f206160008201527f6464726573730000000000000000000000000000000000000000000000000000602082015250565b7f4f776e61626c653a2063616c6c6572206973206e6f7420746865206f776e6572600082015250565b611c5581611a84565b8114611c6057600080fd5b50565b611c6c81611ab6565b8114611c7757600080fd5b5056fea26469706673582212202458fdc13bb7a8bd1a35d3855e98d77d2278f11371bbaa05288535aff3e3405864736f6c63430008040033",
  "linkReferences": {},
  "deployedLinkReferences": {}
}